:100000000C94F4000C947A050C9402060C943A06B5
:100010000C941C010C941C010C941C010C941C01EC
:100020000C941C010C941C010C941C010C941C01DC
:100030000C941C010C9476060C941C010C941C016D
:100040000C941C010C941C010C941C010C949A013E
:100050000C941C0192029602960296029602960257
:1000600096029602B90196029602960296029602AE
:1000700096029602B901960296029602960296029E
:1000800096029602BF019602960296029602960288
:1000900096029602E2019602960296029602960255
:1000A00096029602BF019602960296029602960268
:1000B00096029602E801960296029602960296022F
:1000C00096029602EE019602960296029602960219
:1000D00096029602FF0196029602960296029602F8
:1000E00096029602250296029602960296029602C1
:1000F00096029602F40196029602960296029602E3
:10010000960296020B0296029602960296029602BA
:10011000960296022802960296029602960296028D
:10012000960296022802960296029602960296027D
:10013000960296022802960296029602960296026D
:10014000960296022802960296029602960296025D
:100150009602960230029602960296029602960245
:10016000960296025E029602960296029602960207
:100170009602960230029602960296029602960225
:10018000960296025E0296029602960296029602E7
:1001900096029602450296029602960296029602F0
:1001A00096029602610296029602960296029602C4
:1001B00096029602610296029602960296029602B4
:1001C000960296027602960296029602960296028F
:1001D000960296028D029602960296029602960268
:1001E000960296028D02AB0611241FBECFE5D8E021
:1001F000DEBFCDBF11E0A0E6B0E0E8ECFDE002C05C
:1002000005900D92AE30B107D9F725E0AEE0B1E030
:1002100001C01D92A03EB207E1F710E0C4EFD0E0AC
:1002200004C02197FE010E94C806C33FD107C9F749
:100230000E941F050C94E2060C9400008FB78068A2
:100240008FBF1092DF0581E08093DD051092DC0501
:1002500085B3836085BB0898099880E280B985E4FE
:1002600086BF08950F93413208F04AC03091DF05F0
:100270003111FCCF92E09093DF050093DD059FEFF5
:10028000909372051092B7054093B605442371F020
:10029000FB01A8EBB5E0415050E04F5F5F4F640FAA
:1002A000751F91919D93E617F707D9F71092DE0518
:1002B0009091DE05880F892B8093DE058091DC0507
:1002C000813059F41092DC058091DE0583B906B6C1
:1002D00003FCFACF85EC86BF02C085EE86BF2223E1
:1002E000A9F08091DF05823089F4F9CF8091720501
:1002F000803241F080917205803331F034E00AC0E1
:1003000031E008C032E006C033E004C080917205DD
:100310008F3F61F7832F0F91089585ED86BF06B655
:1003200004FCFDCF1092DF05089585EC86BF109286
:10033000DF0508951F920F920FB60F9211242F938D
:100340003F934F935F936F937F938F939F93AF935D
:10035000BF93EF93FF9381B1E82FE87F8E2F90E05A
:10036000893C910508F0E2C0FC01E65DFF4F0C946A
:10037000C8068091DE0583B985EC86BFD7C0909111
:10038000B7058091B605981770F4E091B70581E044
:100390008E0F8093B705F0E0E854FA4F808183B95F
:1003A00085EC86BFC3C08091DD05882319F00E94CB
:1003B0008D01BCC081E08093DC0584EA86BF109289
:1003C000DF05B4C080E2809372050E948D01AEC04B
:1003D00080E3809372050E948D01A8C088E380931A
:1003E00072050E949501A2C0E091B70581E08E0FD1
:1003F0008093B70583B1F0E0E854FA4F8083909181
:10040000B7058091B605981718F485EC86BF8EC0A5
:1004100085E886BF8BC0E091B70581E08E0F8093A1
:10042000B70583B1F0E0E854FA4F80838091DD0591
:10043000882319F00E948D0179C081E08093DC054A
:1004400084EA86BF1092DF0571C00E948D016EC0E4
:1004500083E08093DF051092730585EC86BF66C04C
:1004600080917305803270F4E091730581E08E0F06
:100470008093730583B1F0E0EC58FA4F808385ECEC
:1004800086BF54C085E886BF51C00E949501809107
:100490007305803230F4E0917305F0E0EC58FA4FC8
:1004A00010826091730570E0E091D805F091D90554
:1004B00084E795E009951092730538C085E886BFFA
:1004C00035C084E08093DF05109295051092940565
:1004D000E091DA05F091DB05099580919405811191
:1004E00005C081E08093940510929605E0919505F2
:1004F00081E08E0F80939505F0E0EA56FA4F8081F7
:1005000083B99091950580919405981718F485EC1E
:1005100086BF0CC085E886BF09C085EC86BF1092F7
:10052000DF0504C0109272050E948D01FF91EF91CA
:10053000BF91AF919F918F917F916F915F914F91FB
:100540003F912F910F900FBE0F901F9018950F9312
:10055000CF93DF9300D0CDB7DEB719826A8300E076
:1005600020E042E0BE016F5F7F4F8CE30E943201CA
:100570000F900F90DF91CF910F910895CF93DF935C
:10058000EC0168830E941E016EEACE010E94A70260
:1005900065EDCE010E94A70260E8CE010E94A7028D
:1005A00068EACE010E94A7026FE3CE010E94A70273
:1005B00063EDCE010E94A70260E0CE010E94A70277
:1005C00060E4CE010E94A7026DE8CE010E94A7025E
:1005D00064E1CE010E94A70260E2CE010E94A70260
:1005E00060E0CE010E94A70261EACE010E94A7024C
:1005F00068ECCE010E94A7026AEDCE010E94A7021C
:1006000062E1CE010E94A70261E8CE010E94A7022A
:100610006FECCE010E94A70269EDCE010E94A702F5
:1006200061EFCE010E94A7026BEDCE010E94A702EE
:1006300060E4CE010E94A70264EACE010E94A702F4
:1006400066EACE010E94A7026EE2CE010E94A702D6
:100650006FEACE010E94A702DF91CF910895FC01BD
:100660008085803460F48781DF01A80FB11D199661
:100670006C938F5F8783808781E090E0089580E0AE
:1006800090E008958F929F92AF92BF92CF92DF92A7
:10069000EF92FF920F931F93CF93DF937C0161E260
:1006A0000E94A70260E0C7010E94A7026FE7C7018E
:1006B0000E94A70262E2C7010E94A70260E0C70190
:1006C0000E94A70267E0C7010E94A70210B18CE058
:1006D00080B9C2E7D1E00F2EF2E78F2EF5E09F2E12
:1006E000F02D570189E0A80EB11C60E4C7010E94FB
:1006F0002F036E01E0E1CE0ED11C6991C7010E946B
:100700002F03CC15DD05C9F701E020E0F701478193
:10071000B5018CE30E943201F7011782E601C8148B
:10072000D90419F710B9DF91CF911F910F91FF9064
:10073000EF90DF90CF90BF90AF909F908F900895F3
:1007400088E98AB986E880BD83E389B908958FB7BF
:1007500080688FBF82B38FEF82BB85B7826085BF11
:100760008BB780648BBF08958FB780688FBF82B3CB
:100770008FEF82BB9AB38ABB85B7886085BF8BB782
:1007800080688BBF0895C29A84B7806484BF8BB79A
:1007900080628BBF08955D9BFECF8CB908950F9347
:1007A0001F93CF93DF9300D000D0CDB7DEB7FC010D
:1007B000462F68EE73E00E94B4066983CF0164E6B9
:1007C00070E00E94B406CB012AE030E0B9010E943B
:1007D000B4068A83CF01B9010E94B406E82FCB0189
:1007E000B9010E94B4068B83EC838E010F5F1F4F0B
:1007F00050E04E585E4FBE016B5F7F4F0AC02191A3
:100800002D93E817F907D9F7485F5F4F06171707C9
:1008100089F0F80181918F0190E0880F991F880F6E
:10082000991F880F991FFC01E055FF4F88549F4F77
:10083000DA01E5CF0F900F900F900F90DF91CF91DD
:100840001F910F9108950F931F93CF93BC01A5EEB5
:10085000B3E040E050E0C82F872F00271127061B88
:10086000170B2C2F382F77230CF49801F901EE0F7A
:10087000FF1FEE0FFF1FEE0FFF1FE40FF51FE055E8
:10088000FF4F90819D934F5F5F4F4830510549F76F
:1008900060FF15C06F5F7F4F9B013695322F222777
:1008A0003795279570FF02C02F5F3F4F35952795ED
:1008B000E0EEF3E0E21BF30B80EC808310C0CB0191
:1008C0009695982F88279795879570FD0196959511
:1008D0008795E0EEF3E0E81BF90B8CE08083CF9185
:1008E0001F910F910895FC01DB01AE58BE4F9C0192
:1008F000205F3F4F91919D93E217F307D9F7089539
:1009000043EF51E063E775E00AC081918D932E17A4
:100910003F07D9F740585F4F4617570739F0DA01BC
:1009200011979A0121593F4FFA01EFCF0895809115
:100930000E0180FD0DC060E070E080EA90E00E9452
:10094000730462E470E088EA90E00E9473040CC0D3
:1009500062E470E080EA90E00E94730460E070E07E
:1009600088EA90E00E94730480910E0190910F013B
:100970000297D0F468E070E080E690E00E94730493
:100980006AE470E080E790E00E94730468E180917F
:100990000B0190910C010E94CF036AE58091150133
:1009A000909116010E94CF0380910E0190910F014A
:1009B00002970297C0F468E070E080E890E00E943F
:1009C00073046AE470E080E990E00E94730480910F
:1009D0000A0168E190E00E94CF03809109016AE575
:1009E00090E00E94CF0380910E0190910F01049737
:1009F0000297C0F468E070E088EA90E00E94730417
:100A00006AE470E088EA90E00E9473048091120129
:100A100068E190E00E94CF03809111016AE590E0C7
:100A20000E94CF030E9480048091130190911401D1
:100A30000E9423048DE191E00E94420308956CE33B
:100A40008DE191E00E94BE020E94A0030E94A703D4
:100A50000E94B4030E94C30310920F0110920E0172
:100A60008DE191E00E944203909ACAE1D1E0809129
:100A70001001882351F18FEF90E00E94CB039091F9
:100A80000C01892F990F990B0E94CB0380910B01C8
:100A900090910C010E94CB0390911601892F990F20
:100AA000990B0E94CB0380911501909116010E9431
:100AB000CB0380910A0190E00E94CB038091090151
:100AC00090E00E94CB0310921001809117018823BF
:100AD00071F0888190E090931401809313018981D3
:100AE000809312018A8180931101109217010E9454
:100AF0009704BDCF1F920F920FB60F9211242F9320
:100B00003F938F939F9384992FC080910E01909172
:100B10000F01009759F420910B0130910C012F5FC8
:100B20003F4F30930C0120930B0116C0813091058B
:100B300051F4809115019091160101969093160140
:100B4000809315013FC08230910531F480910A01F4
:100B50008F5F80930A0136C00397A1F58091090148
:100B60008F5F809309012EC080910E0190910F013B
:100B7000009759F420910B0130910C01215031095B
:100B800030930C0120930B0116C08130910551F474
:100B90008091150190911601019790931601809311
:100BA000150110C08230910531F480910A01815005
:100BB00080930A0107C0039729F4809109018150AD
:100BC0008093090180910B0190910C01992324F4E9
:100BD00010920C0110920B01809115019091160159
:100BE000992324F4109216011092150181E080934C
:100BF00010019F918F913F912F910F900FBE0F90F9
:100C00001F9018951F920F920FB60F9211242F93D9
:100C10003F938F939F9380910E0190910F019C01C0
:100C200021503109263031052CF430930F012093E7
:100C30000E0105C0079790930F0180930E018091DC
:100C40000E0190910F0199232CF4069690930F01B9
:100C500080930E0192B382B3809580789F77892B21
:100C600082BB9F918F913F912F910F900FBE0F905C
:100C70001F9018951F920F920FB60F9211242F9369
:100C80003F934F935F938F9380910801811121C00F
:100C900020910E0130910F01A9014F5F5F4F463047
:100CA00051052CF450930F0140930E0106C02550BE
:100CB000310930930F0120930E0120910E013091E4
:100CC0000F01332334F42A5F3F4F30930F012093F9
:100CD0000E018095809308018F915F914F913F9114
:100CE0002F910F900FBE0F901F9018951F920F928B
:100CF0000FB60F9211248F939F93EF93FF939CB1A4
:100D000080911901882371F080911801882354F093
:100D1000E82F082E000CFF0BE65EFE4F90838F5FDE
:100D2000809318018091180183303CF010921801D3
:100D30001092190181E0809317019F3F19F481E01F
:100D400080931901FF91EF919F918F910F900FBEAA
:100D50000F901F901895EDE1F1E08FEF828386836D
:100D6000848383838583089597FB072E16F400946C
:100D700007D077FD09D00E94CE0607FC05D03EF4CF
:100D8000909581959F4F0895709561957F4F089537
:100D9000EE0FFF1F0590F491E02D0994AA1BBB1BD9
:100DA00051E107C0AA1FBB1FA617B70710F0A61B6B
:100DB000B70B881F991F5A95A9F780959095BC018C
:080DC000CD010895F894FFCF66
:100DC80000FFFF083EF7C100FE22221C002400009D
:100DD80000FFFF083EF7C10088FA800024000000E9
:100DE80000FFFF11111F0E0088F88000240000008A
:100DF80000FFFF11111F0E00C8A89000240000007A
:100E08000000007F3E1C08000000000000000000F9
:100E1800007EFF9189FF7E0000000406FFFF0000AE
:100E280000C6E7B1998F86000066C39191FF7E00E6
:100E380000303E2720FCFC20008F8F89C9793100C3
:100E48000078FC8E8BF970000003C1F13D0F0300A0
:100E58000076FF8D99FF7600000E9FD1713F1E002E
:0E0E68000010101010101000FFC8C806000087
:00000001FF
